:100000000C9472000C948B000C948B000C948B005D
:100010000C948B000C948B000C948B000C948B0034
:100020000C948B000C948B000C948B000C948B0024
:100030000C948B000C948B000C948B000C948B0014
:100040000C948B000C948B000C948B000C948B0004
:100050000C948B000C948B000C948B000C948B00F4
:100060000C948B000C948B000C948B000C948B00E4
:100070000C948B000C948B000C948B000C948B00D4
:100080000C948B000C948B000C948B000C948B00C4
:100090000C948B000C948B000C948B000C948B00B4
:1000A0000C948B000C948B000C948B000C948B00A4
:1000B0000C948B000C948B000C948B000C948B0094
:1000C0000C948B000C948B000C948B000C948B0084
:1000D0000C948B000C948B000C948B000C948B0074
:1000E0000C948B0011241FBECFEFD1E2DEBFCDBF39
:1000F00000E00CBF12E0A0E0B2E0E4E7F1E000E0D5
:100100000BBF02C007900D92A030B107D9F70E9433
:10011000A3000C94B8000C940000E4E0F1E08081AE
:10012000806F8083109205016F98779A0895E5E0BB
:10013000F1E08081806F80830895E5E0F1E08081C7
:100140008F708083089580910401806F80930401F3
:10015000109205016F98779A679904C08091050104
:10016000806F03C0809105018F7080930501F4CFEB
:04017000F894FFCF31
:00000001FF
