:100000000C9472000C948B000C948B000C948B005D
:100010000C948B000C948B000C948B000C948B0034
:100020000C948B000C948B000C948B000C948B0024
:100030000C948B000C948B000C948B000C948B0014
:100040000C948B000C948B000C948B000C948B0004
:100050000C948B000C948B000C948B000C948B00F4
:100060000C948B000C948B000C948B000C948B00E4
:100070000C948B000C948B000C948B000C948B00D4
:100080000C948B000C948B000C948B000C948B00C4
:100090000C948B000C948B000C948B000C948B00B4
:1000A0000C948B000C948B000C948B000C948B00A4
:1000B0000C948B000C948B000C948B000C948B0094
:1000C0000C948B000C948B000C948B000C948B0084
:1000D0000C948B000C948B000C948B000C948B0074
:1000E0000C948B0011241FBECFEFD1E2DEBFCDBF39
:1000F00000E00CBF12E0A0E0B2E0EEEAF1E000E0C8
:100100000BBF02C007900D92A030B107D9F70E9433
:10011000AB000C94D5000C9400008FEF8093040189
:10012000109205010895E5E0F1E08081806F808301
:100130000895E5E0F1E080818F7080830895E5E027
:10014000F1E080818F6080830895E5E0F1E08081B7
:10015000807F808308958FEF8093040110920501C2
:1001600020E731E080910501806F80930501809147
:100170000501807F8093050180E197E2F9013197C5
:10018000F1F70197D9F7809105018F7080930501F0
:10019000809105018F608093050180E197E2F9016C
:0E01A0003197F1F70197D9F7DDCFF894FFCF33
:00000001FF
