:100000000C9472000C9493000C9493000C94930045
:100010000C9493000C9493000C9493000C94930014
:100020000C9493000C9493000C9493000C94930004
:100030000C9493000C9493000C9493000C949300F4
:100040000C9493000C9493000C9493000C949300E4
:100050000C9493000C9493000C9493000C949300D4
:100060000C9493000C9493000C9493000C949300C4
:100070000C9493000C9493000C9493000C949300B4
:100080000C9493000C9493000C9493000C949300A4
:100090000C9493000C9493000C9493000C94930094
:1000A0000C9493000C9493000C9493000C94930084
:1000B0000C9493000C9493000C9493000C94930074
:1000C0000C9493000C9493000C9493000C94930064
:1000D0000C9493000C9493000C9493000C94930054
:1000E0000C94930011241FBECFEFD1E2DEBFCDBF31
:1000F00000E00CBF12E0A0E0B2E0E8E7F3E000E0CF
:100100000BBF02C007900D92A030B107D9F712E0E3
:10011000A0E0B2E001C01D92AC30B107E1F70E944F
:1001200068010C94BA010C94000086E69EE0FC0184
:100130003197F1F74098419840E348B9429A20E05E
:1001400038E4F9013197F1F74298FC013197F1F762
:100150004098419848B9429AF9013197F1F742988D
:10016000FC013197F1F74098419848B9429AF9015A
:100170003197F1F742980197F1F74098419880E262
:1001800088B9429AC9010197F1F74298089598B148
:100190009F7098B928B1982F907F922B98B940986A
:1001A0004198429A20E038E4F9013197F1F74298FA
:1001B00098B19F7098B998B18295807F982B98B923
:1001C00040984198429AC9010197F1F742980895E1
:1001D00098B19F7098B928B1982F907F922B98B9B9
:1001E000409A4198429A20E038E4F9013197F1F7BA
:1001F000429898B19F7098B998B18295807F982B5A
:1002000098B9409A4198429AC9010197F1F74298EA
:10021000089580E80E94C7000895CF93DF93EC0112
:1002200003C00E94E800219688818823D1F7DF91DE
:10023000CF910895823069F0833018F48130A9F4A9
:1002400005C0833049F0843081F40BC0862F81587B
:1002500005C0862F815402C0862F8D560E94C7008C
:100260000895862F8D520E94C700089587B1876F29
:1002700087B988B1887088B9089586E69EE00197AD
:10028000F1F788E20E94C70081E00E94C7008FE07A
:100290000E94C70086E00E94C70008951F93182F90
:1002A00080EC0E94C70082E061E00E941A01812F69
:1002B0006AE00E94AE01805D0E94E800812F6AE042
:1002C0000E94AE01892F805D0E94E8001F91089571
:1002D0001F93CF93DF9387B1876F87B988B18870F9
:1002E00088B90E9495000E943D0180E80E94C700E5
:1002F00081E061E00E941A0183E40E94E8008FE639
:100300000E94E80085E70E94E8008EE60E94E8006F
:1003100084E70E94E80085E60E94E80082E70E94E8
:10032000E80080EC0E94C70082E061E00E941A01B0
:1003300010E0C0E7D1E0812F0E944E0180E197E2FA
:10034000FE013197F1F70197D9F71F5F1A3199F73D
:1003500080E090E0DF91CF911F910895991B79E0A3
:1003600004C0991F961708F0961B881F7A95C9F745
:0803700080950895F894FFCF79
:00000001FF
